{
  "_format": "hh-sol-artifact-1",
  "contractName": "Attack",
  "sourceName": "contracts/SendEther.sol",
  "abi": [
    {
      "inputs": [
        {
          "internalType": "address payable",
          "name": "_addr",
          "type": "address"
        }
      ],
      "name": "attack",
      "outputs": [],
      "stateMutability": "payable",
      "type": "function"
    }
  ],
  "bytecode": "0x608060405234801561001057600080fd5b5061010c806100206000396000f3fe608060405260043610601c5760003560e01c8063d018db3e146021575b600080fd5b603760048036038101906033919060ae565b6039565b005b8073ffffffffffffffffffffffffffffffffffffffff16ff5b600080fd5b600073ffffffffffffffffffffffffffffffffffffffff82169050919050565b60006080826057565b9050919050565b608e816077565b8114609857600080fd5b50565b60008135905060a8816087565b92915050565b60006020828403121560c15760c06052565b5b600060cd84828501609b565b9150509291505056fea26469706673582212205d7222b6ea93ed9422a6045edd06e1d6f7b2445b1f07f82a1a335e90a74dd29664736f6c63430008110033",
  "linkReferences": {},
  "deployedLinkReferences": {}
}