{
  "_format": "hh-sol-artifact-1",
  "contractName": "EtherGame",
  "sourceName": "contracts/SendEther.sol",
  "abi": [
    {
      "inputs": [],
      "name": "claimReward",
      "outputs": [],
      "stateMutability": "nonpayable",
      "type": "function"
    },
    {
      "inputs": [],
      "name": "deposit",
      "outputs": [],
      "stateMutability": "payable",
      "type": "function"
    },
    {
      "inputs": [],
      "name": "targetAmount",
      "outputs": [
        {
          "internalType": "uint256",
          "name": "",
          "type": "uint256"
        }
      ],
      "stateMutability": "view",
      "type": "function"
    },
    {
      "inputs": [],
      "name": "winner",
      "outputs": [
        {
          "internalType": "address",
          "name": "",
          "type": "address"
        }
      ],
      "stateMutability": "view",
      "type": "function"
    }
  ],
  "bytecode": "0x6080604052676124fee993bc000060005534801561001c57600080fd5b506105d58061002c6000396000f3fe60806040526004361061003f5760003560e01c8063953b8fb814610044578063b88a802f1461006f578063d0e30db014610086578063dfbf53ae14610090575b600080fd5b34801561005057600080fd5b506100596100bb565b6040516100669190610321565b60405180910390f35b34801561007b57600080fd5b506100846100c1565b005b61008e610200565b005b34801561009c57600080fd5b506100a56102e2565b6040516100b2919061037d565b60405180910390f35b60005481565b600160009054906101000a900473ffffffffffffffffffffffffffffffffffffffff1673ffffffffffffffffffffffffffffffffffffffff163373ffffffffffffffffffffffffffffffffffffffff1614610151576040517f08c379a0000000000000000000000000000000000000000000000000000000008152600401610148906103f5565b60405180910390fd5b60003373ffffffffffffffffffffffffffffffffffffffff164760405161017790610446565b60006040518083038185875af1925050503d80600081146101b4576040519150601f19603f3d011682016040523d82523d6000602084013e6101b9565b606091505b50509050806101fd576040517f08c379a00000000000000000000000000000000000000000000000000000000081526004016101f4906104a7565b60405180910390fd5b50565b670de0b6b3a7640000341461024a576040517f08c379a000000000000000000000000000000000000000000000000000000000815260040161024190610513565b60405180910390fd5b6000479050600054811115610294576040517f08c379a000000000000000000000000000000000000000000000000000000000815260040161028b9061057f565b60405180910390fd5b60005481036102df5733600160006101000a81548173ffffffffffffffffffffffffffffffffffffffff021916908373ffffffffffffffffffffffffffffffffffffffff1602179055505b50565b600160009054906101000a900473ffffffffffffffffffffffffffffffffffffffff1681565b6000819050919050565b61031b81610308565b82525050565b60006020820190506103366000830184610312565b92915050565b600073ffffffffffffffffffffffffffffffffffffffff82169050919050565b60006103678261033c565b9050919050565b6103778161035c565b82525050565b6000602082019050610392600083018461036e565b92915050565b600082825260208201905092915050565b7f4e6f742077696e6e657200000000000000000000000000000000000000000000600082015250565b60006103df600a83610398565b91506103ea826103a9565b602082019050919050565b6000602082019050818103600083015261040e816103d2565b9050919050565b600081905092915050565b50565b6000610430600083610415565b915061043b82610420565b600082019050919050565b600061045182610423565b9150819050919050565b7f4661696c656420746f2073656e64206574686572000000000000000000000000600082015250565b6000610491601483610398565b915061049c8261045b565b602082019050919050565b600060208201905081810360008301526104c081610484565b9050919050565b7f4f6e6c79203120657468657220616c6c6c6f7765640000000000000000000000600082015250565b60006104fd601583610398565b9150610508826104c7565b602082019050919050565b6000602082019050818103600083015261052c816104f0565b9050919050565b7f47616d65206973206f7665720000000000000000000000000000000000000000600082015250565b6000610569600c83610398565b915061057482610533565b602082019050919050565b600060208201905081810360008301526105988161055c565b905091905056fea26469706673582212208486f79fbdf375aa92b0008b349e00910e7c482eff61c4a4043b18b184fbdd8b64736f6c63430008110033",
  "linkReferences": {},
  "deployedLinkReferences": {}
}